:1000000000800010FD00000067140000691400006B
:1000100000000000000000000000000000000000E0
:100020000000000000000000000000006B14000051
:1000300000000000000000006D140000B15100003D
:1000400065140000651400006514000065140000CC
:1000500065140000651400006514000065140000BC
:1000600065140000651400006514000065140000AC
:10007000651400006514000065140000651400009C
:10008000651400006514000065140000651400008C
:10009000651400006514000065140000651400007C
:1000A000651400006514000065140000651400006C
:1000B00065140000651400006514000000000000D5
:1000C0002CCD0000000100106C2000002CCD0000A1
:1000D00000000020000000002CCD000000400020A7
:1000E000000000006C210010885B00000000002070
:1000F00000000000004000200000000010B5104C7F
:10010000104B9C4206D2A2686168206801F0AFF9EA
:100110000C34F5E70C4B9C4205D26168206801F075
:10012000AFF90834F6E701F007F9084B002B02D0CD
:1001300000E000BF03E006F0B7FF00F01BFAFEE7A7
:10014000C0000000E4000000FC000000000000000F
:1001500010B5064C2378002B07D1054B002B02D09D
:10016000044800E000BF0123237010BD6C21001083
:10017000000000002CCD0000084B10B5002B03D070
:100180000749084800E000BF07480368002B00D17A
:1001900010BD064B002BFBD09847F9E7000000008C
:1001A000702100102CCD00006C2100100000000018
:1001B000A83810B5062814D808F09EFC0406090BD0
:1001C0000D0F1100094B00E0094B585C0DE0094B85
:1001D000FBE7094BF9E7094BF7E7094BF5E7094B53
:1001E000F3E7094807F026FD002010BD337000102A
:1001F0003376001033730010337700103371001022
:100200003374001033720010E0A50000A83810B558
:10021000062814D808F070FC0406080A0C0E10001A
:10022000094B0AE0094B08E0094B06E0094B04E0E2
:10023000094B02E0094B00E0094B5A5402E009481F
:1002400007F0F8FC10BDC046337000103376001084
:1002500033730010337700103371001033740010C3
:1002600033720010F8A50000F0B5070085B0180043
:1002700015001C00019106F017FC390008F0B6FDCE
:100280002000CBB23900029308F040FC2900C3B231
:1002900001980093FFF78CFF009B6E1C7D191818C6
:1002A000EBB20025C4B2F6B20393039B9E4215D075
:1002B000029BED18EDB2AF4205D8ED1BEDB2002C5C
:1002C00001D00134E4B2220031000198FFF79EFF13
:1002D000009B0136E418E4B2F6B2E6E705B0F0BDE3
:1002E00070B515001A00094B094C585C591849782B
:1002F000400849082E1A63185B5DA45D40181B1B5B
:10030000DBB2A821FFF7B0FF70BDC046B17C001082
:1003100033700010F0B50024250085B0254B264F22
:10032000195D1B195A78FF2A3FD0244B985C5B5CFF
:10033000844623489C4501D1435C03E0214E9C4503
:1003400002D9B35C865C01E0435C765C8021385D59
:100350009A19D2B22D180192023AEDB20A4202D095
:100360000134E4B2DAE7A927EB1ADBB22A00210054
:10037000019876190093FFF7B3FFF3B20393FEB22F
:1003800003993000FFF714FF009902903000FFF747
:100390000FFF029B009A1B1ADBB231000198013754
:1003A000FFF762FFAF2FEAD1DAE7385D2D18E8B228
:1003B00005B0F0BD757C0010B17C0010CC130010AE
:1003C000701E00101C150010F8B505000D4807F050
:1003D00031FC01247F26E1B2A8B205F08DF90100BD
:1003E000070031403D2903D1074807F023FC02E014
:1003F000064807F01FFC01343B06ECD5044807F023
:1004000019FCF8BD67A7000077A700007CA70000D3
:1004100059AD0000036810B50400013304D12C224B
:100420000549064800F03AFB636960681B6818409C
:10043000431E984110BDC0467FA70000CEA7000014
:1004400070B504000D001822002106F0F4FE29000A
:10045000200000F0FAFB200070BDFFFF012310B563
:100460004A080E4C1A4022540D4C8A081A40225455
:100470000C4CCA081A4022540B4C0A091A40225448
:100480000A4C4A091A4022548A09094C1A4022543B
:10049000C909084A0B40135410BDC046EF21001093
:1004A000EC210010E9210010142200104C22001051
:1004B0004F220010F221001070B50B4C0B4D237829
:1004C000C1B2207000202B70FFF7C8FF2378297875
:1004D00002209943FFF7C2FF2B782178012099432E
:1004E000FFF7BCFF70BDC04617220010E8210010C6
:1004F00010B51948FFF78EFF0400601E84411748AD
:100500006400FFF787FF002801D004231C43144830
:10051000FFF780FF002801D008231C431148FFF794
:1005200079FF002801D010231C430F48FFF772FF0A
:10053000002801D020231C430C48FFF76BFF002844
:1005400001D040231C430A48FFF764FF002801D074
:1005500080231C43200010BDB8210010882100100A
:1005600034220010D0210010F821001018220010B1
:10057000A021001030B5C1B002F0C6FADC22324B27
:100580001A70324B2E3A1A70002319005232684604
:10059000195401339342FAD1012502F043FA00289D
:1005A0004ED0002002F0C4FB0028F6D00021080045
:1005B00002F054FC264B27481D8003F03BFB264CE1
:1005C0002078FFF795FF2070FFF776FF962005F063
:1005D00037FDC82005F03AFD3A2005F02BFD7820C4
:1005E00005F022FD1D4803F025FB1D49684607F074
:1005F00017FC1C4C200003F01DFB2100684607F08F
:100600000FFC684605F0F4F8002802D1164803F004
:1006100011FB164803F00EFB154803F00BFB684670
:1006200005F0EEFC134803F005FB06F03FF9002847
:1006300002D1114803F0FEFA104803F0FBFAACE7D0
:10064000012041B030BDC046160100101A01001053
:1006500012010010B4AF000030220010C1AF000042
:10066000CDAF0000E2AF0000E4AF0000FAAF000041
:100670000AB0000013B000001FB000002EB0000050
:1006800010B5104801F08EFE0F491048FFF7D8FE54
:100690000F491048FFF7D4FE0F491048FFF7D0FE6E
:1006A0000F491048FFF7CCFE0F491048FFF7C8FE6E
:1006B0000F491048FFF7C4FE0F491048FFF7C0FE6E
:1006C00010BDC046F5210010841201003422001034
:1006D000700801008821001088140100B821001062
:1006E000941A0100A02100106C060100D021001016
:1006F000C4320100F82100107C0E01001822001005
:1007000010B50100014800F0F7FC10BD08240010EE
:1007100010B5FF21024800F0EFFCC0B210BDC0468A
:1007200008240010F8B543B204000D00002B07DACE
:1007300000217720FFF7F6FF012831D87F231C40E6
:10074000A026882380279B013606F750FFF7E0FF9D
:100750008A239B01F750FFF7DBFF2000FFF7D0FF54
:10076000280EFFF7CDFF280CC0B2FFF7C9FF280AFB
:10077000C0B2FFF7C5FFE8B2FFF7C2FF9520402CDB
:1007800003D09438482C00D18630FFF7B9FF0A24F3
:10079000FFF7BEFF030603D5013CE4B2002CF7D1FE
:1007A000F8BDFFFFF8B51D00244B07001B781600AD
:1007B0001B0700D449025120FFF7B4FF002801D0E5
:1007C000012431E01E4CFFF7A3FFFF2804D1013CB8
:1007D000A4B2002CF7D1F3E7FE28F1D1194C641B29
:1007E000A41BA4B2002E07D1002F11D0013DADB241
:1007F00001353E007D1904E0013EFFF789FFB6B2E6
:10080000F0E7FFF785FF30700136B542F9D105E01A
:10081000013DADB2FFF77CFF002DF9D1013CA4B240
:10082000FFF776FF002CF9D18823A02280219B01BD
:100830001206D150FFF76CFF2000F8BD52220010C5
:100840003075000002020000064B1A68831ED16852
:10085000002002398B4203D2507843439069181824
:100860007047C04654220010F0B5040085B001283E
:1008700054D92C4B1D68EB6898424FD22E78022E2B
:1008800032D0032E38D0012E48D181B24B08C9187E
:1008900089B24B0A0193244BCA05D20D296903AFD3
:1008A0009A4204D0019B3800591802230EE0019BA4
:1008B000380059183300FFF775FF021E2ED1296941
:1008C000019B0131C918330002A80530FFF76AFF08
:1008D000002823D17B7838781B0203431811E207E4
:1008E0001DD41805000D1AE02B69C2B2010AC918FF
:1008F000520003AD330007E07F2204232969024040
:10090000C4099200611803AD2800FFF74BFF0028CF
:1009100004D168782B780002184300E0012005B06C
:10092000F0BDC04654220010FF0100002F4BF7B568
:100930001C68002307000D000192138006209C42D2
:1009400053D0A3780138DB074FD5236AE2699B1A9D
:100950008B4200D29DB20097002D45D0E669F30589
:100960001BD1700A617808F057F900290BD1002ECD
:1009700001D1606A02E0A06AFFF776FF01282FD953
:100980000023A062E370A06AFFF75EFF002827D073
:10099000E3785A1C1818E270E062E3692E1CDA054D
:1009A0008023D20D9B009B1A9BB29D4200D91E1C36
:1009B000B6B2381E00D000983300E16AFFF7F2FEAD
:1009C00000280DD1E369AD1B9B19E361009BADB21B
:1009D0009B190093019B1B88F618019B1E80BBE7A7
:1009E00000230120A37000E02800FEBD5422001067
:1009F000294BF7B51C680623002C4AD0A278013B8E
:100A0000D20746D5256A854200D905000022E36950
:100A1000E261954238D066787602002B12D0310020
:100A2000681E5F1E08F072F831000190380008F06F
:100A30006DF8019B834205D373423B40E361ED1A9D
:100A4000A06A01E0606AA062B5420CD9FFF70CFF12
:100A500001281BD9E368984218D2E369A0629B1968
:100A6000E361AD1BF0E7E3695B19E361FFF7ECFEBF
:100A700000280BD06B0ADAB2ED0501D1E27003E079
:100A80000132C318E270E362002302E00023A37086
:100A900001331800FEBDC0465422001010B51300EB
:100AA0000A000100014800F031F810BD39B0000023
:100AB00000B589B072B6124902A800F0E0F8029BB6
:100AC0000193013304D124220E490F48FFF7E6FFBA
:100AD000059B039A96201A60019200F00EFC029B7F
:100AE0000193013304D1242206490748FFF7D6FFBA
:100AF000039A069B96201A60019200F0FEFBDEE747
:100B0000382302007FA70000CEA700000FB4012009
:100B100010B505F0D3FFFFFF70B506000D000B4BBD
:100B20001C68002C0FD0A06800280AD02A003100D1
:100B300007F094F9002804D1A06807F088F98542ED
:100B400001D06468EDE7200070BDC0465822001057
:100B5000007B7047002310B5036043600A780400EF
:100B60002F2A15D14A789A4212D0481C19002060C9
:100B700023681A782F2A02D10133236005E0002A66
:100B800003D0013301312360F2E7FFF7C5FF606056
:100B9000200010BD00687047436810B5181E05D0CE
:100BA000FFF7D6FF013843425841C0B210BD10B51F
:100BB0000400FFF7F1FF031E00D06368180010BDAA
:100BC000436810B5181E04D0FFF7C2FF43425841D6
:100BD000C0B210BD10B50400FFF7F2FF031E03D032
:100BE0006268131E00D0131F180010BD4068431E1A
:100BF0009841C0B27047FFFF036870B504000D0054
:100C0000013304D1242206490648FFF747FF6368F1
:100C1000002D01D0E26800E02269136070BDC0467B
:100C20007FA70000CEA7000070B50D0004001600DD
:100C300000F07EFC6B1C07D00021200000F0A0FC1F
:100C40003100200000F096FC70BD10B50122FFF7C6
:100C5000EBFF10BD70B50D000400160000F068FC3D
:100C60006B1C0BD031002000FFF7C6FF01212000D4
:100C700000F086FC0021200000F07CFC70BD10B567
:100C80000022FFF7E7FF10BD10B50400034B083347
:100C900003601C3000F04EFD200010BD6CB0000061
:100CA00010B50400FFF7F0FF200000F0F3FB200078
:100CB00010BDFFFF70B5050004000E4B0E00083399
:100CC00008C528001822002106F0B5FA00232000EC
:100CD0003100E36123626363A363E364064A230094
:100CE0001C3000F0C5FC28003100FFF7AEFF2000EB
:100CF00070BDC0466CB00000570D000003000A0034
:100D000010B51C300121002A04D01A6200225A6357
:100D10000132110000F022FD10BD030010B50A00E1
:100D20001C30002903D000229963DA6401320221C9
:100D300000F014FD10BD436910B50100002B04D173
:100D40000368002B06D0984704E00068002801D013
:100D50000431984710BD10B5012903D0022904D1F0
:100D6000383000E02030FFF7E6FF10BD10B504007A
:100D7000431C12D00B685A1C0CD09C4208D1200096
:100D8000896800F011FD0021200000F029FD04E039
:100D90000C31EFE70148FFF7B9FE10BD7CB0000051
:100DA00010B5030088420AD00B00421C07D0030094
:100DB0004A1C04D00348FFF7A9FE01235B42180038
:100DC00010BDC0468DB000000B685A1C05D0834290
:100DD00001D1486802E00C31F6E718007047FFFFC8
:100DE00010B50400431C07D0FFF7EEFF0400431CBE
:100DF00002D10248FFF78AFE200010BD9EB000001D
:100E0000054B10B51B68002B04D1044A0449054862
:100E100000F06CFF10BDC046942300104824000071
:100E20004C26000024700010F0B50F0085B02F494B
:100E3000050007F002F8041E02D1FFF7E1FF51E0C0
:100E40002B49280006F0F9FF002803D1FFF7D8FF4F
:100E5000012447E02749280006F0EFFF0024264B35
:100E6000A04206D1FFF7CCFF02343BE00134402C16
:100E70000DD0A600F258002AF8D10BE0290002A8F4
:100E8000FFF768FE02A8FFF7B1FE00280CD101248D
:100E9000644227E02B783A2BF0D102AA17492800A8
:100EA00006F048FF029818E002A8FFF789FE002824
:100EB00003D002A8FFF78EFE0FE002A8FFF777FE2F
:100EC000051EE4D0036802A89B680193FFF762FE49
:100ED0003A000100019B280098470028D7D0064B14
:100EE00003349851200005B0F0BDC046DCB00000CE
:100EF000F9B00000E3B000005C220010EBB000008D
:100F0000030010B50020022B0DDD0749033B9B00B9
:100F10005A585850824204D0136810005B689847B2
:100F200001E00120404210BD5C22001070B50C00B1
:100F30001500022810DC0F4B1B68002B01D1FFF7B6
:100F40005FFF6619B44205D021780B4800F0B5FF69
:100F50000134F7E728000BE00338084B8000C05845
:100F6000002803D003681B68984701E00120404235
:100F700070BDC04694230010247000105C22001045
:100F800010B50C0002280BDC0C4B1B68002B01D1A8
:100F9000FFF736FF0A4800F074FF207001200BE0D5
:100FA0000338084B8000C058002803D003689B68B2
:100FB000984701E00120404210BDC0469423001034
:100FC000247000105C220010030010B50120022BD9
:100FD0000BDD033B054A9B009858002803D00368AB
:100FE000DB68984701E00120404210BD5C22001000
:100FF000030010B50020022B0BDD033B05489B00CE
:101000001858002803D003681B69984701E00120A5
:10101000404210BD5C22001010B5022804D8802385
:101020009B014B60002005E005F042FD09230360B1
:101030000120404210BD10B5012005F03FFDFFFF2B
:10104000074A13681818EFF30881884205D30C2269
:101050000120044B40421A6001E010601800704704
:1010600004010010F07C001010B5002801D0FFF73B
:101070001FFDFEE7704710B5040000F00BFA2000DA
:1010800010BDFFFF73B504000E4800250830206036
:101090000820E0600C48261D606106986560257296
:1010A00025610090300000F019FF2B00300022690C
:1010B000E16800F093FF3000616900F0C5FF200097
:1010C00076BDC04604B1000040420F0070B5094D26
:1010D00004002B6883420BD0061D0269C1680023FF
:1010E000300000F07BFF6169300000F0ADFF2C6044
:1010F00070BDC0465C23001070B50D000400FFF702
:10110000E5FF2900201D00F0E3FF70BD10B50400CD
:1011100043684269991800F0BFF8E36A002B04D1D4
:10112000A369002B07D0984705E0A069002802D0EA
:1011300021001C31984710BD10B5040000F0B4F830
:101140000023A361E36210BD10B50400044B083313
:101150000360FFF7F1FF200000F0ACF8200010BDA5
:1011600018B1000010B50400FFF7EEFF200000F0FA
:1011700091F9200010BD70B50D00040000F094F846
:101180006561206900F068F82918200000F084F8F3
:1011900070BD70B504000D0003681B689847636854
:1011A0001D6070BD036870B5DB6804009847636814
:1011B0005A682368002A02D19B68984713E05B684D
:1011C0001568984763682D1A5A68002D07DC9168E6
:1011D00059601B68002BEAD050689847E7E72368FE
:1011E00010681B69984770BD70B50D0072B64B60F2
:1011F000002346680A607468002C05D02168511AE3
:1012000002D42300A468F7E7002B05D103687560BA
:101210001B691000984700E09D60AC6062B670BD2D
:1012200010B572B6426853688B420CD19B6853600C
:101230000268002B02D1936898470BE01269186886
:10124000904707E01300002B04D09A689142F9D12F
:101250008A689A6062B610BD10B503685B689847EB
:1012600010BD10B503689B68984710BD084B10B5BA
:1012700008330360002343608360C360040000F010
:1012800025F804492061FFF784FF200010BDC04607
:101290002CB100006312000010B50A000300011D0C
:1012A0000069FFF7A1FF10BD10B5011D0069FFF730
:1012B000B7FF10BD10B50400034B08330360FFF700
:1012C000F3FF200010BDC0462CB10000004870475D
:1012D00054B1000010B50248FFF764FF10BDC046CE
:1012E00054B1000070B5040000F02EFF050000F0BE
:1012F0002BFF401BA042FAD370BDFA2310B59B0010
:101300005843FFF7EFFF10BD70B50A4CA568A368FE
:101310002A00002B0AD180225E5952059A18043304
:101320001660C02BF7D180225205A26010308000D9
:10133000815070BD00ED00E07FB580203F49400244
:10134000CA6F8E240243CA672322002020253C4B0B
:101350003C499A60223A0A603B49A4000A6018623C
:1013600019593A4A114001910199A943C82501919F
:1013700001992D0229431951009035480099814265
:1013800004D8C046009901310091F7E701210020FF
:1013900019645964586459645C6C29480C42FBD048
:1013A0008E218026C825890044582D0214400394BC
:1013B000039C34430394039C2C43445023248460B3
:1013C000445822400292029CB4430294029A2A4357
:1013D00042500120DC681A4901220442FAD003205D
:1013E000086700204A67486710004A675C6F144A24
:1013F00001210442FAD08E20916780001558154CC7
:101400002C4014501558144C2C401450002091645A
:10141000D164D064D164DA6C0A42FCD02321084A3A
:101420001161012259691142FCD000220B4B1A6054
:101430001A600B4B01321A607FBDC0460480044025
:1014400000800440F0400440F4400440FF250000C8
:10145000C3090000FFFBFFFFFFFEFFFFC080044049
:10146000C88004407047704770477047704700233A
:1014700010B5934203D21C585C500433F9E710BDF9
:1014800000231A008B4202D21A500433FAE7704745
:101490000020704710B505F09BFE10BD10B504008C
:1014A000431C04D11E2217491748FFF7F7FA174BC0
:1014B0001A68002A06D101321A60154A1549D36FFD
:1014C0000B43D3670122002C12D0134B9C420FD048
:1014D000124B9C420CD0124B9C4209D0114B9C42A7
:1014E00006D0114B9C4203D0104BE1184A424A41AE
:1014F0002000110000F058F90120A404E40EA040DF
:1015000010BDC0465CB10000D3A7000068230010E6
:101510000480044040000100281400002C16000044
:1015200030180000341A0000381C0000C4E1FFFF2E
:1015300070B505000C0029604B1C11D00800FFF7A6
:10154000ADFF2414074BA400E318EB60064B686062
:10155000E3182B61054BE3186B61054BE418AC6095
:1015600070BDC046002200A0802200A0002100A083
:10157000002000A010B5006800F032F910BDFFFF98
:10158000036870B504000D00013304D143220949FA
:101590000948FFF783FA002D06D0012D09D1A26872
:1015A000636811680B4303E0A268616813688B43AA
:1015B000136070BD5CB10000CEA70000F7B501213B
:1015C0000D008540134C636A2B4221D0124B8600DC
:1015D000F058019300281BD023682B4218D1636870
:1015E0002B4206D0E3692B4203D00C4B1B68984773
:1015F000E5612369074F2B4209D03B6A2B4206D095
:10160000064B019A1B680221905998473D6265621A
:10161000F7BDC046004000A0702300106C230010EE
:1016200010B50020FFF7CAFF10BD10B50120FFF76D
:10163000C5FF10BD10B50220FFF7C0FF10BD10B5EB
:101640000320FFF7BBFF10BD10B50420FFF7B6FF66
:1016500010BD10B50520FFF7B1FF10BD10B5062075
:10166000FFF7ACFF10BD10B50720FFF7A7FF10BDB7
:10167000F7B505002748814202DD0120404248E0DD
:101680002548264C02600020820016590096002E44
:101690003BD11351224C2860E36F224F224E3B4333
:1016A000E3671F248B0349120C401821A446040051
:1016B0009B0F59435E346144A400A1518121012450
:1016C000890071589B000F00210081400F433900B1
:1016D0008127BF00F151A021802609065B18B601C1
:1016E00099592700019161468F40019940B2B94351
:1016F00099510E4BD158FFF707FE1F222B68009817
:1017000013409C400A4B1C6003E001300828BBD109
:10171000B3E7FEBD131102006C230010702300100C
:10172000048004408000090000800440A8B100004B
:1017300000E100E000210368064A9B0010B59950C3
:10174000012281210068044C824089006358934340
:10175000635010BD70230010008004400368012016
:10176000984070B50F4C2368034200D16062C543B6
:1017700026680C4B2E402660012909D1002A03D08F
:101780005A68104358600CE05A6815405D6008E0E4
:10179000002A03D01A691043186102E01A69154043
:1017A0001D6170BD004000A070B504000D00431C19
:1017B00004D1152207490848FFF770F9074BE405E3
:1017C000E40DE418072322681D409A431543256061
:1017D00070BDC046C8B10000D3A70000004004405F
:1017E00070B504000D00431C05D11D220F4910489F
:1017F000FFF754F906E081231B01984214D00D4BEA
:10180000984211D00C4BE405E40DE4182368042D34
:1018100004D18022D2001343236005E01822ED009A
:10182000934315401D43256070BDC046C8B10000FC
:10183000D3A70000140A00000040044070B50C1C3F
:1018400005000021201C07F027FB002809D1FE21FC
:10185000201C890507F034FB002803D0FE24A405D2
:1018600000E0002480232D689B00E85808F098F9D8
:10187000211C07F091FE07F037FB81239B00E85005
:1018800070BD8023F7B5812704689B00E258BF0034
:10189000E059E15001920D0008F082F9061C019810
:1018A00008F07EF9011C301C07F0ACFC061C280077
:1018B00008F02EF9011C301C07F06EFE07F014FB37
:1018C000E051F7BDF7B50F00060050493800FFF7AB
:1018D00087FAC3B20500FF2B02D14D48FFF716F976
:1018E0004C4B01211A78019310000840031E04D0CC
:1018F0000A410B000A4200D081E0012421009940F6
:10190000019A4548127873600A4301990A70434A64
:1019100099008A5809333260C26F11008022120682
:101920001143C1672000984003003D4A38005268C7
:10193000364913433A4A5360FFF718FA3768394A71
:101940003B68394913430C223B607B6813437B603F
:101950007A68364B13407B607B680193344B186880
:1019600007F0D4F8FE2301381B0140011840019B09
:1019700018437860E8B207281DD807F0BDF8040ABC
:101980001016040A1016A023DB00FC500222294B7B
:1019900010E0A123DB00FC500222274B0AE0A22327
:1019A000DB00FC500222254B04E0A3230222DB00D3
:1019B000FC50234BFA508022C12352019B00FA5065
:1019C0000123C0225B4292001E49BB500C32B95029
:1019D000043ABB5080231C499B00F950FB58053A40
:1019E0009B08FF3ABB5004227B68300093437B6026
:1019F000FFF747FF30000021FFF720FFF7BD134836
:101A0000FFF784F801235B4277E7C04610B200007D
:101A10007CB200009023001004800440A8B20000B3
:101A2000008004400100060040420F001FF0FFFF4D
:101A300008010010040500000C050000140500005A
:101A40001C05000001100000204E000096B20000AE
:101A5000F0B501256A4B6B4A91B001911D6015608C
:101A6000037A060003930399674B002900D089E0AD
:101A70001B680293019B02981F01390007F046F88A
:101A8000390084B2029807F0C7F8002963D0029B9E
:101A90002F00AB400D93029B0A959B000F93019B77
:101AA0000B930F9B0C930D9B0593029B0793019B3C
:101AB0000E93039B09930025FBB203930B9B0894A1
:101AC0000693EBB20493059B0699002B04DA1800E9
:101AD00007F01CF8040903E00C9807F017F8440914
:101AE00001346408A4B2002C6BD0002D02D0012C6C
:101AF00000D10134791961430798C90007F006F84D
:101B0000019B01304008C01A04F0CEFF0E9B9842A2
:101B10000FDA019B834206D10F2F1ED1039B0A933C
:101B2000049B099312E0039B0E900A93049B089474
:101B30000993019A069B944601356344039A0693E0
:101B4000EBB29342BDD30F2F40D1089C0A9B039365
:101B5000099B049301E00395049180213368DA68BE
:101B60000A43DA60220A92B25A603368E4B21C6017
:101B7000039A3368049E15012E439E62DA688A43F5
:101B8000DA603AE011684568186806F0BFFF04099A
:101B90000199200006F0BAFFFF221C4B0138286291
:101BA0001A601868296A1D68019B01314B43013096
:101BB0001900604306F0AAFFED43154B4019186069
:101BC0001BE06C426C4102231C1B93E7029A079BAB
:101BD00094460D9A6344944607930F9A059B0137E8
:101BE000634494460593019A0C9B089C6344944675
:101BF0000C930B9B63440B935DE711B0F0BDC046A3
:101C000098800440A080044008010010F080044047
:101C1000F4800440F8B55E1E07000D001400012E8C
:101C200005D904222B49FF322B48FEF737FF3B7AB8
:101C3000002B2CD1053D032D05D9842225495200C6
:101C40002648FEF72BFF042C05D985222149520096
:101C50002348FEF723FF042C3BD8200006F04CFF5E
:101C60000C0305070900002204E0012205E002221E
:101C700000E00322012101E000221100B6003543FB
:101C8000C90038680D4312012A43C26021E0073DB4
:101C9000022D05D920220F49FF321248FEF7FEFE21
:101CA000022C05D990220B4952000F48FEF7F6FE90
:101CB000012C04D0002C03D0022C0AD100E0032414
:101CC0000123AD001D43B6017A682E43240134433D
:101CD0001460F8BD28B3000074B3000099B300008D
:101CE000BCB3000040B4000064B40000F7B50E00BF
:101CF000514F0500390030000092FFF771F84F494D
:101D000004000098FFF76CF801002000FFF748F886
:101D1000019704004A4F431C05D1572249494A48BC
:101D2000FEF7BCFE49E0494B98422DD011D8B8428D
:101D300021D0474B984240D10423802045492B7243
:101D4000CB6FC0030343CB678021434A49005368EC
:101D500031E0424B984223D0414B98422DD103238E
:101D600080203C492B72CB6FC00303433A4ACB67B8
:101D7000536880211FE000238021364A2B72D36FE5
:101D800049010B43D36718E00123802031492B72AE
:101D9000CB6F40030343304ACB67536820210AE0EE
:101DA000022380202B492B72CB6F80030343CB6728
:101DB0004021294A53680B4353602B7A002B05D1ED
:101DC00001222C60A2602A68536007E0822301226E
:101DD0001B016C60A36023681343236096212800D5
:101DE0008901FFF735FE0123002208212800FFF7B3
:101DF00011FF01993000FEF7B9FF10490098FEF776
:101E0000B5FF731C03D002213000FFF7E9FC009BF3
:101E1000013303D002210098FFF7E2FCBC420AD153
:101E20002B7A002B07D101220E4B29001A600E4895
:101E30000B3205F0E2F9F7BDC0B40000B0B200000B
:101E40000080004028B30000AEB4000000C006408F
:101E500000C00440048004400080044000000740AB
:101E6000004007409423001024700010027A0123E0
:101E7000002A02D10268506901E042689068184067
:101E8000704710B504002000FFF7F0FF0028FAD0DB
:101E9000237A002B02D12368186801E0636858692F
:101EA00010BD037A002B03D103685869202302E098
:101EB0004368986804231840704770B504000D000B
:101EC0002000FFF7EEFF0028FAD0237A002B02D182
:101ED00023681D6001E06368DD6170BDF0B5334EBD
:101EE00087B0009104003100009801920293FEF740
:101EF00077FF2F4D070029000198FEF771FF2D494C
:101F000003900298FEF76CFF2B4904900C98FEF7A3
:101F100067FF039905903800FEF742FF0599070017
:101F20000498FEF73DFF01003800FEF739FF2060FE
:101F3000431C04D1482221492148FEF7AFFD236804
:101F4000204A93420FD0204A934219D180201F4942
:101F5000C002CB6F1E4A0343CB6701211D4B1960A2
:101F6000536803310AE0802018490001CB6F184AFA
:101F70000343CB670121184B196053680B4353602F
:101F800031000098FEF7F2FE29000198FEF7EEFE00
:101F900008490298FEF7EAFE0C9B013303D006497C
:101FA0000C98FEF7E3FE07B0F0BDC04680B6000017
:101FB00038B5000074B50000BCB60000BCB5000028
:101FC00005B6000000000440008005400480044085
:101FD000008004409C80044094800440F8B50E00CA
:101FE0000221140002681D00536807008B435360F0
:101FF000331F0C2B06D9032C04D965221049114834
:10200000FEF74CFD8023E0010340013E1E43A30781
:1020100034003968DB0F0A689B01120C12041C4360
:1020200014430D220C604B6893436A1E95410222B3
:10203000AD001D434D604B6813434B60F8BDC04677
:10204000BCB5000019B60000F7B5022405000E006B
:1020500002685368A34353601A4B1B680193210025
:10206000019806F053FD07F053FD071C300007F000
:102070004FFD011C381C07F0C5F8FC21890506F04E
:102080004BFF08F03BFA04F077FC08F001FAFF2858
:102090000FDC2B680C4A1C61196801380A400221C8
:1020A0001A601A680002104318605A680A435A609E
:1020B00007E0802302345B009C42D0D10348FEF746
:1020C00025FDF7BD08010010FF0000FF57B6000016
:1020D00002220368D8681042FCD004229960D968B3
:1020E0001142FCD098687047104B70B51A68002AEE
:1020F0001AD1012580210E4A1D60D36FC9000B4300
:10210000D3670C4B0C4C186802230C49636006F033
:10211000FDFC0138E0600A4965601320FFF7F4F820
:102120008022084B12031A6070BDC046982300102D
:1021300004800440080100100080014040420F006C
:10214000D512000000E100E0044B10B51B68002B25
:1021500001D1FFF7C9FF024B986810BD982300100A
:10216000008001400121034B98615A690A435A617A
:102170007047C046008001400121024A53698B43E9
:1021800053617047008001400122014B1A60704783
:10219000008001407047704770477047FF22014B35
:1021A0001A7070479E23001010B502F09FF910BD01
:1021B00030B50023FF250A4C0A4AE15C002902D011
:1021C000D15C013104E0D05C002804D0FF2801D1AB
:1021D000D15400E0D5540133072BEED130BDC046B9
:1021E000084C0010A1230010034B185C0138434237
:1021F0005841C0B27047C046A1230010002210B55C
:102200001D4B19781A701D4A5078002801D0012002
:102210001870D078002803D0022418782043187052
:102220001078002803D00424187820431870907880
:10223000002803D00824187820431870107900284B
:1022400003D010241878204318705079002803D048
:1022500020241878204318709279002A03D0402057
:102260001A7802431A701B78054A180008409943EF
:10227000044B1070197010BDA0230010084C001002
:10228000A9230010A8230010014B18797047C046FD
:10229000084C00100023094A1380094A1370094AA8
:1022A0001370094A13700122084B52421A80084ADF
:1022B000084B1A600922084B1A707047B0230010AF
:1022C000AF230010B8230010AA230010AC23001085
:1022D000C4C00000B4230010AE23001010B50248A3
:1022E000FFF7D8FF10BDC046AB23001037B572B65C
:1022F00000210422244B802559601961234BED00F5
:102300001A608E22224B92009C582C4380259C50B0
:102310009C586D002C439C5001225A671400596749
:1023200019004B6F1A4D01222340FAD114002B677C
:102330006A676B674B6F164A2340FBD18E24536448
:10234000516CA400936013675360155911492940DB
:102350008025019101992943C825019101992D02F8
:1023600029431151A02284211206890153500A49A0
:1023700053500A4953500A4B9860001C01688D461F
:102380004068804737BDC046004000A010E000E034
:1023900000800440FF250000042100000821000007
:1023A00000ED00E07047FFFF10B501240020FC2283
:1023B000154BD2001C70154B01001880144B1A806D
:1023C00000F04CFD200001F089FB124A124B12680C
:1023D0009A4203D0114801F039FC03E0104B186811
:1023E000FFF784FFFFF750FF00280CD1FFF706FF2F
:1023F000FFF74AFF0028F5D0FFF746FF002802D07C
:10240000FFF7FCFEF8E710BD14010010304A001081
:102410000C01001004FE03001EAB07B0E2C2000076
:102420000CFE0300F8B50024012001F057FB454BDA
:10243000FC271C8000F0F4FC434D444B44482B80A7
:1024400001F0ECFA0123434E30213370424BFF0080
:102450001C70424B60201C702F8001F0FDFB404837
:1024600001F0E8FB3821602001F0F6FB3D4801F067
:10247000E1FB4021602001F0EFFB3B4801F0DAFB7B
:102480004821602001F0E8FB384801F0D3FB6021CF
:10249000282001F0E1FB364801F0CCFB013C354837
:1024A0002C8001F0C7FB34482F8001F0C3FB0223CE
:1024B0002C80337002F094FE043485B2FFF79EFE48
:1024C0007821682001F0C8FB0A21200001F018FCE7
:1024D00002F086FEFA239B00EB18984203D902F023
:1024E0007FFE013C85B202F079F8002808D002F0A6
:1024F00075F8041E02D0FFF781FEF8E7FFF754FFDE
:1025000002F060F8002807D002F05CF8002802D042
:10251000FFF774FEF8E7040002F05AF8002802D131
:10252000002CCBD106E002F053F8002802D0FFF7D0
:1025300065FEF8E70123337000F072FC002001F023
:10254000CDFAF8BD304A00100C01001000F8FFFF72
:1025500060BD000014010010150100100E010010F4
:10256000F7C20000FCC2000001C3000006C3000067
:102570000BC3000011C3000015C30000F0B5714C7F
:102580001E0023888BB005000F0004920993002ED3
:1025900006D00020322300901A00010000F052FC07
:1025A000FC23DB002380002E16D001F08FFA0400FC
:1025B000012001F093FA01F027FF390002001439DD
:1025C000681EC9B2C0B20A2301F09EFB5E4801F04A
:1025D00031FB200001F082FA049B0B2B02DC5B4AEA
:1025E000584B1A803BB203930123594C009328B2F5
:1025F0002200039900F03CFC049B172B02DC534B98
:10260000504A1380ABB21D00012608352DB2059348
:102610002200330003992800009600F029FCBBB289
:102620000693043B1BB207930096330022000799E0
:10263000280000F01DFC049B2F2B01DD454B00E022
:10264000424B0124059D424E3E4A10352DB2138067
:102650000399230032002800009400F009FC2300B5
:10266000320007992800009400F002FC069B0094B9
:10267000083B1BB20893320023000899280000F0A1
:10268000F7FB049B5F2B02DC304A2E4B1A8001249F
:10269000059D2F4F18352DB223003A0003992800CD
:1026A000009400F0E5FB23003A000799280000940D
:1026B00000F0DEFB23003A0008992800009400F0A7
:1026C000D7FB069E23000C3E36B200943A00310040
:1026D000280000F0CDFB049B9F2B02DC1B4A194B0A
:1026E0001A800125059C1A4F203424B22B003A0091
:1026F00003992000009500F0BBFB2B003A000799DE
:102700002000009500F0B4FB2B003A00089920004F
:10271000009500F0ADFB2B003A0031002000009541
:1027200000F0A6FB06992B0010393A0009B200957B
:10273000200000F09DFB6A46024B928C1A800BB081
:10274000F0BDC0460C010010A4C300008A52000076
:1027500061C9000000F8FFFFF7B500250126012040
:1027600001F0BCF98A4B20201D7001F01DFE01F024
:102770004BFE07F015FA874B041C1D703500864B85
:102780001B78002B00D101E1002D00D1FEE0012DCE
:1027900000D095E0814D002E36D0012700F040FB9F
:1027A0007F42102120202F8000F058FB7C4801F050
:1027B00041FA9921282000F051FB7A4801F03AFAB9
:1027C000FC237948DB002B8001F034FA77482F8016
:1027D00001F030FAFC235821DB0000202B8000F0B0
:1027E0003DFB734801F032FA724F380001F02EFAC7
:1027F000380001F02BFA380001F028FA380001F017
:1028000025FA6D4801F022FA9921302000F026FBCC
:1028100001F0FAFD252802DC01235B4200E0674B52
:102820002B800223664A00933021013BA42000F054
:102830001FFB3621182000F011FB624801F0FAF965
:102840004221182000F00AFB01F0DEFD282801DDFE
:102850005D4800E05D48FC2701F0ECF90223FF0031
:102860005B4A2F8060210093A420013B00F000FB15
:102870006621182000F0F2FA564801F0DBF97221C7
:10288000182000F0EBFA01F0BFFD252802DD4B4BCC
:102890002B8000E02F8001F0B7FD0A2101F030FA13
:1028A0004D4801F0C7F9FC23DB002B8001F0ACFDA3
:1028B0000023020076217020FFF760FE02255EE70C
:1028C000022D00D060E7FFF799FC01F07BFE0028A5
:1028D00008D001F077FE002801D105004FE7FFF78F
:1028E0008DFCF6E701F086FE00282CD08421201C08
:1028F000C90506F0EFFA002807D03849201C06F079
:10290000CBFA002808D0364909E08421201CC905EB
:1029100006F0E0FA002801D0324900E03249201CDC
:1029200006F0FAFA3149041C06F0CAFA002802D06F
:10293000FF2001F039FD2E49201C06F0C1FA0028C5
:102940001BD02B4C19E001F04FFE002800D116E7F8
:102950002449201C06F034FF8421C905041C06F01C
:10296000A5FA002802D0202001F01EFD0021201C25
:1029700006F092FA002800D00024201C07F0A6F8E8
:1029800000B201F0FFFC00260125F8E6F7BDC046C5
:1029900015010010C3230010C12300100C0100100A
:1029A00020C30000DBC2000034C3000036C30000B7
:1029B00041C300005CC3000077C3000000F8FFFFC4
:1029C0001DC9000096C2000092C300009CC3000015
:1029D0003FC90000A7C30000A4C3000000000442D8
:1029E000CDCC4C3C0000A03F0000204000005042F5
:1029F00000007F43012210B5084B00201A7001F03F
:102A00006DF8074801F00AF802F0DAFB02F0F0FB7B
:102A100001F06CFD02F0EAFB10BDC046C1230010BE
:102A2000F8B60000014B18787047C046C12300106B
:102A3000F7B50024FC2725005826FF00292D48D88B
:102A400002F0CEFB234B1A689042F7D91E30186073
:102A5000012D0BD0002D02D0022D22D035E01E4BCF
:102A600028001D8000F0EAF901252EE0FC21E2B2E9
:102A7000C900002001F07CF9184B194A18806E2318
:102A800051781078490840081C34181A711A0095BA
:102A90002B00A4B200F0ECF9FE2C16D9002402257C
:102AA00013E00E4B0E4A1F806E23107851784008B9
:102AB000181A49086D3B0093711A00F0D9F93F3498
:102AC000084BA4B29C4200D9FF25FFF7DDFB00288C
:102AD000B4D0F7BDF86E0010304A00100C010010A1
:102AE00013C40000FF03000010B5202001F05CFCBF
:102AF0001022034B1A80034BEF321A7010BDC046F0
:102B00005E4A0010C023001070B5FFF773FF322239
:102B10000124FF25234B1A70234B1C60234B1D708F
:102B2000FFF7E2FFFFF736FB28000025FFF733FB36
:102B3000FFF73AFBFFF73CFBFFF72FFB00F089F9AB
:102B4000FFF776FF200000F0C9FF194B1D8000F051
:102B500067F9184800F062FFFFF764FCFFF7FCFD1F
:102B600001F036FC280000F0B9FF134B13481C702D
:102B7000134B1C70134B1C70134B1C7000F04EFF5A
:102B800001F06EF9FFF70AFB0520FFF72DFBA842C5
:102B900003D10E4B1B78AB4202D1002001F0F2FBB7
:102BA00070BDC046C2230010C8230010C02300100F
:102BB000304A001060BD000015010010FCB9000093
:102BC0000E01001014010010100100109E230010CF
:102BD000F8B5274D274C0023EE5E0023E75E264B19
:102BE00000211A78DD239B1A2B80244B21801B782F
:102BF000042B2FD8180005F07FFF031B2525250087
:102C000001F067FA0020FFF7C6FA00F0F5FA01229A
:102C10001B4B1C481A7001F00DF81B4B0A21188839
:102C200001F06EF8194801F005F800F015FB18E006
:102C3000174B00211A680F2307201340072B0ED9CA
:102C400078200CE0134A1278002A0AD00533D8B253
:102C5000002104E00F4B1B78002B02D02F2001F045
:102C60004BF8FF231E401F402E802780F8BDC04632
:102C7000284A00102E4A0010214A00109E230010FE
:102C800014010010B2C300009C230010BFC3000059
:102C9000BC2300109F230010F0B51F4B85B01A789D
:102CA0000393002A36D000240B2A02D80C239C1A46
:102CB000E4B20127194B0020AD251F7000F0E8FA9F
:102CC0000322174EA4B231780020CB1C691A611878
:102CD0000092513200F065FE380000F0D9FA03226C
:102CE00031780020CB1C691A61180092513200F033
:102CF000F2FD04220B4B1A803378E41A0A4BAF34EE
:102D00001C800A4B186800F095FF039B039A1B7800
:102D1000013B137005B0F0BDD42300101401001066
:102D2000204A0010284A00102E4A0010CC23001020
:102D3000F8B5070001F04AF81A4D2C6802F050FA75
:102D4000194E201A3378194C984202D92368002B67
:102D500014D12368002B0FD101F0B6F901F018FA55
:102D600001F00AFBFFF798FFFFF732FF002F01D1B8
:102D700000F072FA01232360002011E002F030FA23
:102D80000B4A337818181368286001331360002346
:102D90002360FFF701FAFFF70BFAFFF7FFF90120B5
:102DA000F8BDC046D0230010C2230010C823001075
:102DB000BC23001010B5024800F042FE10BDC04612
:102DC000C423001013B56B469C1D2200FDF7AEFD19
:102DD000208816BD10B50020FDF70AFE014B1870C3
:102DE00010BDC046202400100123812213B5074CDA
:102DF0005B4200935201064B06492000FEF742F960
:102E0000054A06492000FEF743FB13BD08240010C5
:102E1000180C0000241200000001001075100000C2
:102E200010B5002001F0E0FC0023024A1380024AA2
:102E3000138010BD284A00102E4A001010B501F072
:102E4000D3FC10BD13B504AC2488009401F081FEBE
:102E500013BD10B501F02AFD10BDFFFF024B188015
:102E6000024B19807047C046284A00102E4A0010B5
:102E7000F0B58FB00B9114A909780A9008911178D8
:102E800005915178023209910092012B76D1059B70
:102E90000733DB100C936B461B8D079304930023C1
:102EA00003936B460C21595E059B8B4200DCF0E0DE
:102EB0000723CA171A405218D21053B20A93764BFE
:102EC0000B4004D50822013B5242134301338022B8
:102ED0001BB21A416B469B8D0D9206930293002301
:102EE00001936B4604229B5E099A93423EDA0C9A48
:102EF0000A995343009A5218D35C0D9A1A422DD066
:102F0000089B664C012B09D1069B0199039859181F
:102F1000079B2288181809B200B21DE06B461027E3
:102F2000DF5F6B4608269E5F22883100380001F083
:102F3000F5FD049B31005D1C2DB22288280001F0B4
:102F4000EDFD029B22885E1C36B23100380001F094
:102F5000E5FD31002800228801F0E0FD019B0133EE
:102F60000193029B02339BB20293BAE7039B0133A6
:102F70000393049B02339BB2049392E7042B00D08B
:102F800087E00023099A934200DB82E09BB2029320
:102F90006B469B8D00250793029B079A5B00D31815
:102FA0009BB21AB201331BB204936B461B8D039282
:102FB00006930193059BAB4267DD009B384A1B7863
:102FC00012681B115B009E5A089B022B19D1069BAD
:102FD0006C001C19A4B227B20134320003993800E6
:102FE00024B201F09BFD32000399200001F096FD10
:102FF00032000499200001F091FD3200049938005C
:1030000007E0029B079A99186B4632000420185E6D
:1030100009B201F083FD0F22009B1B781340204A68
:103020005B0012689E5A089B022B1AD1069B6C000B
:103030001C19A4B2A71C3FB2033432000399380014
:1030400024B201F06BFD32000399200001F066FD0F
:1030500032000499200001F061FD3200049938002B
:1030600007E0029B079A99183200019B09B2581C8D
:1030700000B201F053FD009B023501330093019B28
:103080002DB202339BB2019394E7029B01331BB232
:1030900078E70FB0F0BDC046070000800C010010BB
:1030A0001C4A0010F0B513004D4A8DB00B9010680B
:1030B0000491427811000592F72208390A40511E06
:1030C0008A410599C91052180992099902784A4310
:1030D000511C4B431A0082181279053352B20A92DE
:1030E0000022C31803926A46127B0A9952B2914297
:1030F0006BDD09991A78022903D00133089393B242
:1031000004E0991C5B7808911B02134300936B4603
:103110009B89002506936B469B8D0793069B079A18
:103120005B00D3189BB21AB201331BB20192029317
:10313000059BAB4244DD0122009B13420ED0294B7C
:103140001B78022B07D1049B6C00E418264EA4B216
:1031500027B2328811E0244B1A8822E0234E244BF8
:1031600032881B88934225D01E4B1B78022B18D126
:10317000049B6C00E418A4B227B239000198013412
:1031800001F0CCFC24B232883900029801F0C6FC70
:1031900032882100019801F0C1FC32882100029898
:1031A00006E0049B0798E918069B09B2181800B2BC
:1031B00001F0B4FC009B01355B0800936DB2B7E7EA
:1031C000039B01330393089B8DE70020094B18569E
:1031D0000A9BC018034B1B7858430DB0F0BDC04686
:1031E000244A0010140100100C010010304A001095
:1031F000180100101501001010B5114B1888114B63
:10320000C2B21B78012B03D1FF21002808D00CE0AB
:10321000022B05D101331A4011009300194302E03B
:103220000F231A4011000B011943074B074A186876
:1032300004F001F80023064A1380064A138010BDEB
:10324000224A00100F010010144A0010D02500007F
:10325000284A00102E4A0010064B10B51968064B7C
:10326000186801F09DFC054B1B78002B01D1FFF77E
:10327000C3FF10BD1C4A0010144A0010184A001069
:1032800010B5024800F05EFD10BDC046FEC1000052
:1032900003231840014B18807047C04612010010EC
:1032A0001B4B10B51B88934230D01A4B1C7883B24D
:1032B0009C422BD9184B89B21B788B4226D90F23FD
:1032C000134001D003231340A4104C43134A811030
:1032D00064181168A4B2091903240A782040A04296
:1032E00001D1824304E0022804D10A3082439B00CA
:1032F00013430AE0012803D12F3082431B01F7E773
:103300003F209B0102401343DBB20B7010BDC0464F
:1033100018010010160100101A010010144A0010C4
:10332000F0B51300274A87B00490106805914778DC
:10333000F722390008390A40511E8A41F910521803
:103340000292029902784A43511C4B431A00821898
:103350001279053352B203926A46158AC318049A49
:103360000399AA1A52B2914224DD029A1C78022AC9
:1033700003D001330193A4B204E09A1C5B7801925C
:103380001B021C430026B74210DB059B28B2F11834
:1033900001231C4201D00C4B00E00C4B1A7809B2FF
:1033A0000136FFF77DFF640876B2ECE70135ADB278
:1033B000019BD4E70020064B1856039BC01807B0AA
:1033C000F0BDC046244A001012010010224A00102D
:1033D00015010010184B82B21B7893422BD9174A63
:1033E00089B212788A4226D99B104B43144A811025
:1033F0005B18116803229BB2C91810400B78114A60
:10340000032803D112788343134313E0022803D126
:1034100012880A30920004E0012805D112882F306A
:1034200012018343134304E010883F2280011340BC
:103430000343DBB20B707047160100101A01001035
:10344000144A00101201001070B50F4B15001B78C4
:103450008AB20600934202D8AAB2934212D90B4B09
:103460001A78B3B29A420DD9A94202DD0B002900A5
:103470001D000C00A54205DB21B23000FFF7AAFFBA
:103480000134F7E770BDC0461A01001016010010A4
:1034900070B50F4B16001B7882B20D00934202D814
:1034A0008AB2934212D90B4B1A78B3B29A420DD911
:1034B000A84202DD030028001D000400A54205DB30
:1034C00020B23100FFF786FF0134F7E770BDC04638
:1034D000160100101A01001010B5002A04DA92B289
:1034E0005118524209B212B28A1812B2FFF7ACFF59
:1034F00010BD10B50B00002A04DA92B21018524227
:1035000000B212B28218013A11B21A00FFF7C0FFDE
:1035100010BDF8B5060014000F00CB181DB2341909
:103520002A0024B2FFF790FF2A0039002000FFF79D
:103530008BFF3A0030002100FFF7AAFF2A0030007D
:103540002100FFF7A5FFF8BDF8B58218CB180500DC
:103550000C0012B21BB2002801DA002A2DDB174939
:1035600009788D4201DB914227DD002C01DA002B26
:1035700023DB134909788C4201DB99421DDD95421A
:1035800002DC11002A000D009C4202DC190023001D
:103590000C00161C002A00DA002636B2191C002B7B
:1035A00000DA00210FB2AE4207DA30002200390003
:1035B0000136FFF749FF36B2F5E7F8BD16010010F6
:1035C0001A010010F0B587B0002878D03D4B1B7869
:1035D000984201DB581E00B23B4A1478042C07D1F4
:1035E0003A4A11784143CA0F5118491089B20AE08A
:1035F000022C64D10321354A12784243D517294061
:103600008A18921091B2324A15880195314D2D8851
:1036100015802E4A00282DDD1278181AD5086C4323
:103620000294002425000490049884421BDA2800A8
:10363000491B89B203916F46461BFE82FE8A03999D
:10364000B446029E411889B2B44508DA461CB44615
:10365000214E715C31546146F982F88AEBE70134FE
:10366000A4B20500E0E71D491BB20020095E12B2BA
:1036700000201EE012789BB25443174FE41085B22D
:1036800002940393039BAB420FD90C00661A029B72
:10369000B6B29E4205DA661CB6B2BB5D3B5534003D
:1036A000F4E70135ADB22100ECE70021030008008A
:1036B00012B2FFF749FF6A46054B92881A8007B09D
:1036C000F0BDC0461A0100100F01001016010010D5
:1036D00012010010224A0010212400102E4A00106E
:1036E000F0B587B004936B46012400921B880290CA
:1036F000E21AA3405B4212B21BB2039101920593FE
:10370000631E009A1BB29A4267DD019B002B0CDB03
:103710001300013B1BB20093059B02339BB21AB20C
:103720000592019A9B181BB20193019A6300013321
:103730009B1804221BB20193049B13420FD06B46CB
:103740001F899D891E883819A91909B200B22D193F
:10375000BE19FFF73FFE29B230B2FFF73BFE02224F
:10376000049B13420FD06B461F899D891E88E01968
:10377000A91B09B200B2FFF72DFEBE19291B09B221
:1037800030B2FFF727FE049B1B070FD56B461D8940
:103790001F889E89E81BA11909B200B2FFF71AFE23
:1037A000BE19281B31B200B2FFF714FE049BDB07E1
:1037B00002D40134A4B2A3E76B461D891F889E89F9
:1037C000E81B311B09B200B2FFF704FEF61B281BF1
:1037D00031B200B2FFF7FEFDEBE707B0F0BDF0B588
:1037E0008BB01600089393B201220790D01A934031
:1037F0005B421BB206938BB20493013B9BB20293D4
:1038000010AB1B8800B2059302339BB201930023D7
:10381000009003930992039BB3425ADA009B002B5A
:103820000ADB069B013E02339BB21AB20692009A53
:1038300036B29B181BB20093039C009A0134A4B2C9
:1038400023B20393630001339B181BB20093099AC0
:10385000089B134217D06B46B5B29F8B059B6A003D
:103860009A18049B3819591B12B209B200B2FFF71B
:1038700033FE6B4604229A5E6B467D190821595E21
:1038800028B2FFF729FE0222089B134208D1029BAF
:10389000013B9BB20293019B02339BB20193BAE7B7
:1038A0006B46B7B29D8B059B7A009A18049B281B28
:1038B000D91B12B209B200B2FFF70EFE6B4604220A
:1038C0009A5E6B46ED1B0821595E28B2FFF704FE95
:1038D000DDE70BB0F0BDF0B587B01F000CAB0024E6
:1038E0001C5F01900E00012C03DC3B00FFF711FE72
:1038F00055E06B469B88A1B202935B181BB2009304
:1039000093B203934B009BB20493049A039B310040
:103910009D1A2DB22A000098BFB2FFF7EAFDB6B299
:103920007B1EF3189BB205936B462A001421595E47
:103930000098FFF7DEFDA3B29E19049B36B2FF1A72
:103940003FB231003A000198FFF7C6FD039B3100FA
:103950005D1E029B3A005D19ADB228B2FFF7BCFDB7
:103960003100012322000098FFF7BAFEA3B2ED1A3E
:103970002DB23100022322002800FFF7B1FE059B83
:10398000A2B29E1A36B20423220031002800FFF7AB
:10399000A7FE0823220031000098FFF7A1FE07B020
:1039A000F0BDF0B587B00C000CA900268E5F012E8B
:1039B00003DC2100FFF7C8FD2DE0B7B281B292B25F
:1039C0007D0004920291AAB2C919059209B203912D
:1039D000049A0599013B9DB2521A2BB2210012B2F2
:1039E0000398FFF7B1FD059B3C19ED1A049B24B227
:1039F000581E029B2DB21818C01B00B201233200C2
:103A000021000095FFF7EBFE009502233200210014
:103A10000398FFF7E4FE07B0F0BDFFFF054B064A31
:103A200018600378013313704378044A013313702C
:103A30007047C046244A0010214A0010204A001056
:103A40000E4A0F4B10B504001A60FFF719FC012253
:103A50000C4B0D481A700D4BDB321A800C4B2C3A74
:103A60001A80FFF7DBFF11220A4B20001A80002288
:103A7000094B1A80094B02321A7010BD2124001024
:103A8000144A0010324A0010F8B60000F249001043
:103A90002A4A001018010010224A0010F1490010B3
:103AA00010B5084B09B21B6800B29B78D21A064BBE
:103AB000D2B21B78002B02D0FFF7F4FA01E0FFF737
:103AC0002FFC10BD244A0010324A0010024B187817
:103AD000431E9841C0B27047324A001009490A4A51
:103AE0000A4B002805D001200870DC211180B0228B
:103AF00005E00870064909781180064A12781A8094
:103B00007047C046324A0010F24900102A4A00109D
:103B1000160100101A01001010B50B4C0B490023C0
:103B2000E25E0B4B09881B685B785800091A09484C
:103B3000007840B28A4203DDC018FFF743FD02E07F
:103B4000C3189B18238010BD2E4A00102A4A00106B
:103B5000244A00100E01001070B52B4B04001A68A7
:103B6000D378002B03D0602801D9203CE4B20E2C7E
:103B700021D8200004F0C0FF461F1F1F1F1F1F1F5A
:103B80000E1F081F1F1B46000022204B1A80FFF744
:103B9000C3FF37E01D4910780B882022181A1C4BF0
:103BA00080B208801978C0B2FFF77AFF2AE00022BD
:103BB000164B1A8026E0154D12780023E85E154B4F
:103BC0001B889B1A98420BDB00232B80124B1B781F
:103BD000002B17D0FFF7A0FF0D4B2878197802E0D3
:103BE0000B4BC0B219782200FFF75AFF202C06D1E8
:103BF0000A4B1B785BB2002B01D0401001302B88A0
:103C00001818288070BDC046244A0010284A0010A9
:103C10002E4A0010F249001010010010150100108A
:103C200010B504002078002803D00134FFF794FF7A
:103C3000F8E710BD10B5FFF7F3FF10BD10B50D206C
:103C4000FFF78AFF0A20FFF787FF10BD10B5FFF7C7
:103C5000E7FFFFF7F3FF10BD024B1880024B1980FE
:103C60007047C046284A00102E4A00100023F0B5C5
:103C7000050089B00E00984203D13020FFF76CFF99
:103C80001CE05C1C28006B4431001F0004F0C4FFE2
:103C900028003970310004F039FF2300051EF0D1EF
:103CA0006B46013C1B5D18003730C0B2092B01D8B0
:103CB0003033D8B2FFF750FF002CF1D109B0F0BD7E
:103CC00010B5041E03DA2D20FFF746FF64420A21D7
:103CD0002000FFF7CBFF10BD10B5002903D1C0B203
:103CE000FFF73AFF07E00A2902D1FFF7E9FF02E0F8
:103CF000C9B2FFF7BBFF10BD10B5FFF7EDFF10BD58
:103D000010B5FFF7E9FF10BD10B5044C2080044842
:103D1000018019001000FFF7DFFF10BD284A0010D6
:103D20002E4A001010B50248FEF73CFB10BDC046FD
:103D30002C4A001089104901D210C0100A43C00259
:103D40001043704770B504000025074EA2786178D3
:103D50002078FFF7EFFF6B000135F0520334102D90
:103D6000F4D1024B1E6070BDF44900101C4A0010D3
:103D700070B51F24050025400C40641B23B253433B
:103D80001B12EB183F2544114E112C40C00A354040
:103D9000C9122D1B091A55434A4312122D128018BD
:103DA0001BB26419021C002800DA002212B2D202EF
:103DB000181C002B00DA00201043231C002C00DA12
:103DC00000231BB25B01184380B270BD70B51A4B63
:103DD0001A4C196822681E00194D91421DD02368A3
:103DE000002B03D18021174809010DE02368012B26
:103DF00003D180211448090106E0802123680901CC
:103E00001248022B00D01248FEF7DCFF8022236804
:103E1000120133602B689B182B600E4B0E4A1B6AF5
:103E20009B182A68934205D200242C60FEF7D2FF2B
:103E30000A4B1C7070BDC046944E00100C4E001012
:103E4000D06E0010C9660010C94E0010C95600108F
:103E5000C95E0010D823001000F8FFFF784E001054
:103E600010B501F021F910BD00B5002B3CD104289C
:103E70003AD804F041FE030E242B3200002349B24D
:103E8000994204DB0B1C0A2900DD0A23DBB2174A26
:103E900013E0174B89001B68164ACB58164813606D
:103EA0001B88164A11781A004A43D2B202701B12BC
:103EB000934200DD13004B43114A137014E00F4B83
:103EC0001B7859430F4B19700F4B0CE00B4B1B78B1
:103ED00059430E4B19700E4B05E0084B1B785943A4
:103EE0000C4B19700C4B1A7000BDC046704A001084
:103EF0006C4A0010504A00105B4A0010384A00100B
:103F0000394A0010644A0010344A0010714A001007
:103F10004C4A0010664A0010354A0010002A11D1A0
:103F2000094B1870094B1B785943094B1970094B01
:103F300009491A70094B1A8001230B7008490B704C
:103F4000084B1A707047C0463C4A0010384A0010AF
:103F5000494A0010584A0010374A0010724A0010AF
:103F6000364A00103D4A001010B500240D4B1B7856
:103F7000A34201D00C4B1C780C4B1B78002B0AD0B1
:103F80000B4B187805F00CFE0A4905F03BF9011CB3
:103F90000948FDF753FC200000F0C2FF074B1C80CE
:103FA00010BDC046364A0010594A0010CA6E0010B3
:103FB000604A001000007F43704E0010CC6E00106D
:103FC00010B500280FD1084B1870084B1870084B1B
:103FD0001880084B1870084B1870084B1870084B65
:103FE0001870FFF7C1FF10BD374A0010494A001092
:103FF000724A00103D4A0010594A00105C4A0010F5
:10400000364A001010B5041E03D1FFF7D9FF014B4B
:104010001C7010BD334A001070B505000C1E12D183
:104020000800FFF7EFFF0122074B1D60074B1C80C4
:10403000074B1A70074B08321A70074B1C70074B5E
:104040001C70074B1C7070BD444A00104A4A001097
:10405000334A0010704A0010644A0010714A001080
:10406000664A001010B500281FD1104A1378002BA3
:104070001BD00F4B1978002917D10E4C0E4823780E
:1040800000685B001B5A0D48834201D111700CE09F
:104090000B4A181210700B4ADBB212689B0098583A
:1040A000FFF7BAFF23780133237010BD414A001097
:1040B000334A0010624A0010684A0010FFFF0000F7
:1040C000614A0010544A001010B50020FFF7CAFFE3
:1040D00010BD10B50020FFF795FF10BDF8B5002802
:1040E00048D1254A1378002B44D0244B1B78002B51
:1040F00040D1234C234D238828685B00195A00299E
:1041000012D1214B1B78002B02D0218001880BE0BB
:104110001E4B11701878002809D00800FFF7A2FF85
:1041200023882A685B00995A01271F2602E0FFF7BF
:1041300047FF1FE00A008B103A4013D08811C912C4
:104140000A0001000F20103A52B2314018400023FB
:10415000FFF78AFE23882A6801339BB223805B0025
:10416000995AE7E73F20090A1840FFF7D7FE23884E
:1041700001332380F8BDC046334A0010494A00107D
:104180004A4A0010444A00103E4A0010414A0010BA
:1041900010B50020FFF7A2FF10BDFFFFF7B5002804
:1041A00000D0ABE0564B1B78002B00D1A6E0554B5E
:1041B0001878002802D1FFF703FF9FE0524C013826
:1041C00018702378002B26D1504D51482B885A1C4B
:1041D000504B51001B68CB5A0721194001704E49C2
:1041E000981208704D4899050078890E41431B07C5
:1041F00021704B49DB0F0B7093B24A4A2B80127827
:10420000934208D3484B1878002802D0121A2A800B
:1042100001E0FFF7D5FE2378013B2370434B444C6C
:104220001D7801356DB21D70424B1B7801933A4BDE
:104230001E78019B9E19404B1B78F6183F4BF6B237
:1042400019782670002907D0280004F0E9FC3C4BBF
:104250001B7858433618267020782421243004F027
:10426000C5FD002721700E000021364B364CDF576C
:10427000364B27705956002907D0280004F0D0FC8F
:10428000334B1B7858433F182770324B197800295D
:1042900010D0280004F0C4FC2F4B184004D5022392
:1042A00001385B42184301302C4B1B78584323786C
:1042B000C0182070019B3F2B0AD02278131C52B2E9
:1042C000092A01DD092304E01A0602D5002300E0D3
:1042D00000232370224B9A5D224B1A700C4A2378DC
:1042E00012785343204A12785A43204B1B885B11A3
:1042F00053431F4ADBB213701E4A1370F7BDC0460A
:10430000374A0010494A0010584A0010724A0010FB
:10431000484A0010504A0010654A0010384A001000
:10432000634A00105B4A0010394A00103D4A0010F1
:104330005A4A00103C4A0010614A0010714A0010AD
:104340004C4A0010704A00103F4A0010644A0010A6
:10435000344A0010664A001001000080354A0010FF
:1043600067C90000404A00103A4A00105E4A001037
:104370005C4A0010594A001010B50020FFF70EFFEC
:1043800010BDFFFF031C002800DA0023044A1BB203
:104390001288934200DD13B2024A13807047C04670
:1043A0001C0100105E4A001010B5002803DBFF2836
:1043B00002DDFF2000E00020034B1880034B0020AB
:1043C000185EFFF7DFFF10BD1C0100105E4A0010F1
:1043D000054B10B51888202801D9103000E00830AE
:1043E00000B2FFF7CFFF10BD5E4A0010054B10B5BD
:1043F0001888202801D9203800E0083800B2FFF7DB
:10440000C1FF10BD5E4A0010014B18887047C046BE
:104410005E4A001010B50248FDF7C4FF10BDC0464B
:104420003B4A00100122014B1A717047084C0010E2
:104430000022014B1A717047084C00100122014BF9
:104440005A717047084C00100022014B5A71704796
:10445000084C00100122014B9A717047084C001063
:104460000022014B9A717047084C00100122014B49
:104470005A707047084C00100022014B5A70704768
:10448000084C00100122014BDA707047084C0010F4
:104490000022014BDA707047084C00100022014BDB
:1044A0009A707047084C00100022014B1A70704738
:1044B000084C001010B5054B9A79002A02D0FFF77E
:1044C00087FF01E001229A7010BDC046084C001021
:1044D00010B5054B9A79002A02D0FFF787FF01E05B
:1044E00001221A7010BDC046084C001010B5204CB7
:1044F00020492000FCF711FC20001F49FCF7FEFBBF
:104500001E4C1F492000FCF708FC20001D49FCF749
:10451000F5FB1D4C1D492000FCF7FFFB20001C494A
:10452000FCF7ECFB1B4C1C492000FCF7F6FB2000C1
:104530001A49FCF7E3FB1A4C1A492000FCF7EDFB83
:1045400020001949FCF7DAFB184C19492000FCF748
:10455000E4FB20001749FCF7D1FB174C174920005A
:10456000FCF7DBFB16492000FCF7C8FB10BDC0467A
:10457000104C00103144000025440000604C001035
:10458000494400003D440000744A001061440000AA
:1045900055440000B84B0010794400006D44000001
:1045A000C44A00109144000085440000184B0010DC
:1045B000A9440000D1440000684B00109D44000055
:1045C000B5440000014B18797047C046084C0010F4
:1045D000014B58797047C046084C0010014B987940
:1045E0007047C046084C0010014B18787047C04611
:1045F000084C0010014B98787047C046084C0010DA
:1046000070B52648FFF71CFA254E26493000FCF706
:1046100051FB254D254C2A0021003000FCF738FFC6
:10462000234E24493000FCF745FB2A0021003000CE
:10463000FCF72EFF204E21493000FCF73BFB2A00FF
:1046400021003000FCF724FF1D4E1E493000FCF70E
:1046500031FB2A0021003000FCF71AFF1A4E1B49DB
:104660003000FCF727FB2A0021003000FCF710FF88
:10467000174E18493000FCF71DFB2A0021003000BE
:10468000FCF706FF144E15493000FCF713FB2A0017
:1046900030002100FCF7FCFE70BDC046144B00103A
:1046A000104C00108412010000010010890C000061
:1046B000604C001070080100744A0010881401005A
:1046C000B84B0010941A0100C44A00106C06010097
:1046D000184B0010C4320100684B00107C0E010022
:1046E000074B1A8882420AD01880A023054A06493F
:1046F0001B0699500549C000585000219950704739
:10470000B04C0010882000000700F8FF882100004E
:1047100070B58A23A024042224069B01E250802342
:10472000064D5B046351FFF7DBFF8023044A5B0106
:10473000A350C046C046635170BDC046042200006D
:104740008422000070B58823A024042224069B0143
:10475000E2508023064D5B046351FFF7C1FF8023C5
:10476000044A5B01A350C046C046635170BDC046B9
:10477000042200008422000010B504002020FFF76E
:10478000C7FF0020FFF7DEFF2120FFF7C1FFA0B227
:10479000FFF7D8FF2220FFF7BBFFA02388220421C8
:1047A0001B06920199508021034A490499508021A7
:1047B0004901995010BDC0460422000010B5074CB5
:1047C00007492000FDF77EF820000521FDF759F884
:1047D00004492000FDF732F810BDC046B44C00106B
:1047E000FC0402009A99993E10B504002020FFF7BE
:1047F0008FFF0020FFF7A6FF2120FFF789FF002091
:10480000FFF7A0FF2220FFF783FF2000FFF768FFDC
:10481000A023882204211B06920199508021084A76
:1048200049049950802107484901074C9950195172
:10483000C046C046013899500028F8D110BDC04686
:1048400004220000409700008422000010B52020C0
:10485000FFF75EFF0020FFF775FF2120FFF758FFED
:104860000020FFF76FFF2220FFF752FF0020FFF725
:1048700037FFA023882204211B0692019950802132
:10488000074A49049950802106484901064C99502D
:104890001951C046C046013899500028F8D110BDC2
:1048A00004220000409700008422000070B5A0257B
:1048B0000124784E2D06FFF781FFAC510A20FCF74A
:1048C0001CFD754B0A20EC50FCF717FDAC510A207B
:1048D000FCF713FD2000FFF71BFF8E204000FFF7C1
:1048E00031FF0220FFF714FF80204000FFF72AFF6E
:1048F0000320FFF70DFF6948FFF724FF0820FFF7AB
:1049000007FF6748FFF71EFF0C20FFF701FF00209D
:10491000FFF718FF0F20FFF7FBFE2000FFF712FF45
:104920002020FFF7F5FE0020FFF70CFF2120FFF706
:10493000EFFE0020FFF706FF1020FFF7E9FE002042
:10494000FFF700FF1120FFF7E3FE80204001FFF793
:10495000F9FE0A20FCF7D1FC3020FFF7D9FE002039
:10496000FFF7F0FE3120FFF7D3FEDB20FFF7EAFE72
:104970003220FFF7CDFE0020FFF7E4FE3320FFF7E3
:10498000C7FE0020FFF7DEFE3420FFF7C1FEDB206C
:10499000FFF7D8FE3520FFF7BBFE0020FFF7D2FE61
:1049A0003620FFF7B5FEAF20FFF7CCFE3720FFF72C
:1049B000AFFE0020FFF7C6FE3820FFF7A9FEDB2080
:1049C000FFF7C0FE3920FFF7A3FE0020FFF7BAFE75
:1049D0000A20FCF792FCFF20FFF79AFE0320FFF766
:1049E000B1FE5020FFF794FE2E48FFF7ABFE51209A
:1049F000FFF78EFE2C48FFF7A5FE5220FFF788FE3A
:104A00002A4D0520FFF79EFE5320FFF781FE280068
:104A1000FFF798FE5420FFF77BFE2548FFF792FE34
:104A20005520FFF775FE234C0320FFF78BFE562021
:104A3000FFF76EFE2000FFF785FE5720FFF768FEA8
:104A40001D48FFF77FFE5820FFF762FE2800FFF7A2
:104A500079FE5920FFF75CFE2000FFF773FEB020BF
:104A6000FFF756FE1548FFF76DFEFF20FFF750FEDB
:104A70000020FFF767FE0720FFF74AFE1048FFF708
:104A800061FEC820FCF739FC2220FFF741FEFFF74A
:104A9000DDFE70BD04220000842200003010000002
:104AA0000808000003020000090A000021100000AD
:104AB00002060000030700000705000001250000B2
:104AC00017100000F8B5050017000C001E00ADB26D
:104AD0003720FFF71DFE2800FFF734FE3620FFF7D2
:104AE00017FEB8B2FFF72EFEA4B23920FFF710FE72
:104AF0002000FFF727FE3820FFF70AFEB0B2FFF7CD
:104B000021FE2020FFF704FE2800FFF71BFE2120D6
:104B1000FFF7FEFD2000FFF715FEF8BD70B584B26B
:104B20001600DB2C14D88DB2AF2D11D82020FFF742
:104B3000EFFD2800FFF706FE2120FFF7E9FD20002A
:104B4000FFF700FE2220FFF7E3FD3000FFF7FAFD3C
:104B500070BDF7B51C0008AB1B8807000E001500E0
:104B60000193824201DC451C2DB2B44201DC741C6D
:104B700024B26B1E621EDBB2D2B2F9B2F0B2FFF702
:104B8000A1FF2220FFF7C4FDED1BA41B6C43002CEA
:104B900004D00198FFF7D6FD013CF8E7F7BDFFFF11
:104BA000F0B5BC4C8025A544049000200391A024BE
:104BB000FFF7E2FD0023240602936D01029B9A1089
:104BC000049B9A185EAB0093B34B0099D3180193E2
:104BD00003239C460F001378613FFF3F059703981E
:104BE0009F117F003F5A05981E11078060460640BE
:104BF00003987600365A60460E800E009F100740DC
:104C00007800039F6136C05BFF3630806646B02077
:104C100033405B00DB5B800008180380019B373268
:104C200002319A42D6D1022306AA9B180193019B16
:104C30009A4F023B1888FFF753FDE551C046C04626
:104C4000974E019BA5511888FFF74AFDE551C046D4
:104C5000C046019BA5515888FFF742FDE551C0466B
:104C6000C046019BA5519888FFF73AFDE551C04623
:104C7000C046019BA551D888FFF732FDE551C046DB
:104C8000C046019BA5511889FFF72AFDE551C04692
:104C9000C046019BA5515889FFF722FDE551C0464A
:104CA000C046019BA5519889FFF71AFDE551C04602
:104CB000C046019BA55110330193B12306AA5B00A6
:104CC0009B18019A9342B2D1B6AB0193009B18880E
:104CD000FFF706FDE551C046C046009BA551588828
:104CE000FFF7FEFCE551C046C046009BA5519888E1
:104CF000FFF7F6FCE551C046C046009BA551D88899
:104D0000FFF7EEFCE551C046C046009BA55118894F
:104D1000FFF7E6FCE551C046C046009BA551588907
:104D2000FFF7DEFCE551C046C046009BA5519889BF
:104D3000FFF7D6FCE551C046C046009BA551D88977
:104D4000FFF7CEFCE551C046C046009BA55110338D
:104D50000093009A019B9342B8D1FFAB3C33009380
:104D6000019B1888FFF7BCFCE551C046C046019B7B
:104D7000A5515888FFF7B4FCE551C046C046019BD9
:104D8000A5519888FFF7ACFCE551C046C046019B91
:104D9000A551D888FFF7A4FCE551C046C046019B49
:104DA000A5511889FFF79CFCE551C046C046019B00
:104DB000A5515889FFF794FCE551C046C046019BB8
:104DC000A5519889FFF78CFCE551C046C046019B70
:104DD000A551D889FFF784FCE551C046C046019B28
:104DE000A55110330193019A009B9342B8D1009BC7
:104DF0001888FFF775FCE551C046C046009BA551D9
:104E00005888FFF76DFCE551C046C046009BA55190
:104E10009888FFF765FCE551C046C046009BA55148
:104E2000D888FFF75DFCE551C046C046009BA55100
:104E30001889FFF755FCE551C046C046009BA551B7
:104E40005889FFF74DFCE551C046C046009BA5516F
:104E50009889FFF745FCE551C046C046009BA55127
:104E6000D889FFF73DFCE551C046C046009BA551DF
:104E700010330093B02306AADB009B18009A9342DC
:104E8000B5D1029B04330293DC2B00D096E6054B90
:104E90009D4409E064FAFFFFD02500008422000051
:104EA000042200009C050000F0BDC04670B504005F
:104EB0000D001822002102F0BEF929002000FBF7A6
:104EC000DEFE200070BDFFFF7F23812110B50A4C5C
:104ED0008EB018402070094A0901684600F0CAFAED
:104EE00022785E21684600F010FB2478684600F0C6
:104EF0000BFB20000EB010BDC96E0010140A00009C
:104F0000002210B5044B10201A70044B01321A70A5
:104F1000FFF7DAFF10BDC046C96E0010D46E001056
:104F2000A0228021030012064905D80701D5284890
:104F300000E028481150A02280215B10120689054C
:104F4000D80701D5224800E022481150A022802134
:104F50005B101206C905D80701D51D4800E01D48A1
:104F60001150A02280215B1012060906D80701D536
:104F7000174800E017481150A02280215B1012064C
:104F80004903D80701D5144800E014481150A02265
:104F900080215B1012068903D80701D50E4800E076
:104FA0000E481150A02280215B101206C903D807B9
:104FB00001D5094800E00948115080215B1009041F
:104FC000002B01D0044B00E0044BD1507047C04689
:104FD0000422000084220000082200008822000031
:104FE00070B5244B00241A7801231340224A234D24
:104FF0001370A34228D000262149224A0B68581C6E
:1050000008601B789657DBB2A64203D00322921B9E
:105010001341DCB21C4A2C701368984211D31B4B0D
:105020001868013018601868042801D10020186041
:105030001B681748DB02C3180B60802109015B184D
:1050400013602878FFF76CFF200004F0A9FD1149D8
:1050500004F0D8F8011C1048FCF7F0FB2B780F4A3D
:105060001C190F4B64101C801378591C11700D4AC9
:10507000D45470BD784E0010CA6E0010C84E001097
:10508000D44C00101E010010F04D00100C4E00100A
:10509000C94E001000007F43704E0010F06E0010EB
:1050A000CC6E0010D84C001010B50C4C0C492000F0
:1050B000FCF708FC20001F21FCF7E3FB2000094956
:1050C000FCF7BCFB0848094B5A2183610023C362EB
:1050D000FCF751F8FFF714FF10BDC046704E0010EA
:1050E00040270200CDCCCC3D984E0010E14F00008F
:1050F00010B5194C2000FCF7B9F8184B184A23607A
:1051000000231849A361E3622000FCF7C1F91649A6
:105110001648FFF7CBFE16491648FFF7C7FE16499B
:105120001648FFF7C3FE16491648FFF7BFFE16499B
:105130001648FFF7BBFE16491648FFF7B7FE16499B
:105140001648FFF7B3FE16491648FFF7AFFE16499B
:105150001648FFF7ABFE10BD984E001020B10000BE
:105160000001001049110000D0380100D84D001096
:10517000D43A0100D86E0010D83C0100F44D001064
:10518000DC3E0100BC4C001044290200104E00100F
:10519000482B0200284E00104C2D0200404E0010FB
:1051A000502F0200584E0010A42201007C4E001027
:1051B000024A13680A3313607047C046F46E001049
:1051C000044B054A07215A6000229A601960034B7C
:1051D0001A60704710E000E0FF520700F46E001004
:1051E000014B18687047C046F46E00107047FFFF0F
:1051F000A023802104201B0689015A5810B50243C0
:1052000080205A50294A40019958014380209950E2
:1052100099584004014301209950995801439950ED
:10522000234924485A5802435A5023480021FCF786
:10523000D7FA00212148FCF7D3FA00212048FCF7D7
:10524000CFFA00211F48FCF7CBFA00211E48FCF7DB
:10525000C7FA00211D48FCF7C3FA00211C48FCF7DF
:10526000BFFA00211B48FCF7BBFA00211A48FCF7E3
:10527000B7FA00211948FCF7B3FA00211848FCF7E7
:10528000AFFA00211748FCF7ABFA00211648FCF7EB
:10529000A7FA00211548FCF7A3FA00211448FCF7EF
:1052A0009FFA00211348FCF79BFA10BD0420000070
:1052B00008200000F8FF07000007020004090200B0
:1052C000080B02000C0D0200100F02001411020066
:1052D000181302001C1502002017020024190200F6
:1052E000281B02002C1D0200301F02003421020086
:1052F000382302003C250200036870B504000D004D
:10530000013304D1242206490648FBF7C7FB636832
:10531000002D01D0E26800E02269136070BDC04634
:105320007FA70000CEA70000036810B5040001337A
:1053300004D12C2205490648FBF7B0FB636960687D
:105340001B681840431E984110BDC0467FA700004F
:10535000CEA7000010B50121FCF712F910BD70B501
:1053600004002500FFF7F6FF1835606BFBF7BAFF66
:1053700028000121FFF7C0FF01212000FFF7BCFF3B
:10538000606BFBF7AFFF00212000FFF7B5FF606BFC
:10539000FBF7A8FF28000021FFF7AEFF606BFBF7CB
:1053A000A1FF70BD10B50400FFF7D4FF606BFBF7E1
:1053B00099FF00212000FFF79FFF606BFBF792FF32
:1053C000200001211830FFF797FF606BFBF78AFF81
:1053D00001212000FFF790FF10BDF8B504000F0079
:1053E0000825FFF7B7FF606BFBF77CFF0121013D4C
:1053F000A9402600394020001836FFF77DFF012123
:105400003000FFF779FF606BFBF76CFF0021300085
:10541000FFF772FF002DE6D101212000FFF76CFF9E
:10542000F8BD70B504002500FFF794FF1835012181
:105430002000FFF761FF01212800FFF75DFF002139
:105440002000FCF79DF804212000FCF793F8606B26
:10545000FBF748FF00212800FFF74EFF2000FFF771
:1054600063FF0023984203D1606BFBF73BFF0123EE
:10547000180070BDF8B5182604000D0017000021B3
:10548000320001F0D8FE29002000A519FBF7DDFB52
:1054900032002800002101F0CEFE39002800FBF781
:1054A000D4FB2800FFF756FF28000421FCF762F820
:1054B0002000FFF74FFF04212000FCF75BF82300DA
:1054C0000026012730331E7028006763FFF742FF74
:1054D0002000FFF73FFF39002000FFF70DFF3100EC
:1054E0002800FFF709FF606BFBF7FCFE2000FFF7C9
:1054F00059FF2000FFF756FF2000FFF753FF200061
:10550000FFF750FF2000F8BD704770B50D00160082
:105510000400FFF724FF0123290020009943FFF72F
:105520005CFF2000FFF77DFF31002000FFF755FFF3
:105530002000FFF776FF2000FFF734FF70BDFFFF6C
:1055400010B5064B0648197803F06AFB054B186046
:1055500039235843044B188010BDC0461F0100106A
:10556000983A0000006F0010FC6E001010B5024861
:10557000FCF718FF10BDC046046F0010F0B5002402
:10558000444B89B01D780700AB08EB1ADBB20393DC
:1055900048232600029401940093002F78D03E4BBC
:1055A0001B5D18000493072398430DD006AB22001F
:1055B000D81D049900F048FBBB1EDFB2374B023404
:1055C0001B78E4B2009359E0354B364A9C46019B68
:1055D000D15C354B1B5D0B436146CB5C0299525C41
:1055E0003249095D11436246525C3149D218FF23AA
:1055F00093429B41895D5B4205930B002D49095DF8
:1056000019436346595C059B88318918C9180906F6
:10561000090F00F0EDFA009B013BDBB20093002B79
:1056200008D17B1E0134DFB2E4B2002F30D01B4B17
:105630001B780093013DEDB2002D1FD0039B013B71
:10564000DBB20393002B02D1049B002B10D11A4B29
:10565000019A1B5DD318DBB20193184B029A1B5DB4
:10566000D318DBB20293164B1B5DF318DEB294E73E
:1056700006AB22000499D81D00F0E6FA0026054B7F
:1056800002961D5D0196AB08EB1ADBB2039384E72B
:1056900009B0F0BD33700010337500100121001007
:1056A0001C140010D0170010337100103374001058
:1056B0006C15001033720010337600103373001035
:1056C0003377001070B5094A094C0A4D0378002B56
:1056D00008D011784E1C615C167029708B4203D182
:1056E0000130F3E7012000E0002070BD32700010AF
:1056F000056F001030700010074B984204D9074B1B
:1057000018184118064B03E0064B1818064B4118B1
:10571000C91808787047C046A4920000A60100107E
:105720005B6DFFFF650300100083FFFF0E4B0F4A08
:1057300019700F4B5B5CD35C202801D1D80911E0B4
:10574000232802D19B09223803E02E2803D1DB084D
:105750002D38984306E05E2802D15B095D38F8E7F2
:10576000012040427047C0463270001020010010F6
:10577000056F001010B51B4B1B4C5A5C1B4B217066
:105780009B5C202801D1D8092BE0232802D19B095A
:10579000223803E02E2803D1DB082D38984320E07F
:1057A00026280BD1163803400020834219D101303E
:1057B000482A16D109182170180012E05E2802D17B
:1057C0005B095D38EAE72B2809D10020452A08D07B
:1057D00010239A4310004938421E904101E00120F5
:1057E000404210BD056F0010327000102001001003
:1057F0002023C74AF0B51370002389B00790C5482D
:105800007F2603705F334F279C46C34C037807996C
:10581000C95C0D0035406F2D02D96546294004E072
:105820005F2D01D8257001E03940217001332178C6
:10583000DBB20370D154FF2BE8D11B211F00FF32D4
:1058400011700293029BB3490133DBB205936B469F
:105850001B7DAF480B70059BC35C5B2B06D19B2265
:105860007B1CDBB20B700799CA5424E02E2B0FD19E
:10587000029AAA4C0232D2B20A70825CA45C012263
:105880002240A54C227003D17A1CD7B2237014E0B9
:105890000224A24AD25C224222D1002A12D1202321
:1058A0009C4A11784354791CCFB21770782F04D9D1
:1058B000079A7B33D35501208DE1079AD355059B79
:1058C0000293BFE752B2002A00DB3AE1413BDBB270
:1058D000934A0B709349D25CCB5C1202134300E0F5
:1058E000914B0193019B002101339BB2180001935E
:1058F000FFF702FF00240306F4D5631CDBB2190096
:1059000001980693FFF7F8FE282801D0069CF4E7DB
:10591000069B0393039B01980133DBB219000393A9
:10592000FFF7EAFE2928F5D1039B0493049B019815
:105930000133DBB219000493FFF7DEFE7F2318402A
:105940003D28F3D16B46734D1B7D02342B70059BB4
:105950006F4EE4B2029321000198FFF7CDFE2B7841
:10596000F25C8242BED10134039AE4B2A24201D178
:10597000059E23E00133DBB202936B461B7A2B704A
:10598000E9E7644B1870654B1B5C7F2B23D8751EB1
:10599000EDB22900FFF7CAFE431C65D12B2C50D075
:1059A00023D93A2C24D15D4859492024731EDBB2F7
:1059B000CA5C825C224255D1564A1370069B0198FC
:1059C000013BDBB219000693FFF796FE04000306C5
:1059D000D7D5029C76E04E4B9B19013B1B78834246
:1059E00000D07FE7731EDEB2E8E7262C03D0A8E0E4
:1059F000402C19D0A5E0474B4549484A1D704B5DE6
:105A0000D05C1022104200D09DE0482B00D069E706
:105A1000B31E4048DBB20370CB5C3F490B7093432D
:105A2000432B00D18FE05DE704213A4B3B4A1D70C8
:105A3000374B5B5DD25C0A4200D084E0364A13707B
:105A400050E7344B04211D70314B5A5D324B1A70B4
:105A50001300453B8B43DBB2002B74D0002A00D0EF
:105A600040E770E01E00A0E701286CD13AE70399F7
:105A70000198FFF741FE294E335C7F2B58D8264B07
:105A8000651C1870402861D021493A2873D0EDB2C6
:105A90002900FFF76FFE012800D123E7831C11D0F6
:105AA000002862D01C4B1B78252B4AD1194B1D7046
:105AB000174B5A5D452A00D087E05D196B78F35C7F
:105AC0007F2B64D8039B0133DBB20393039A049BBF
:105AD0009342CCD1154B1B68002B02D00198FAF7EA
